:20E0000038B50D4604460BF05DFE07482168016061684160A16881600CF082FE0CF0C8FE55
:0CE0200028460CF04BFB38BD44480020A3
:20E02C00DFF8441C0870704738B5DFF8404CDFF8405C20702878C0000DF036F86060C8B157
:20E04C00002108E04FF6FF7220F8312000EBC10300225A60491C2A789142F3DB052000F044
:20E06C00AEF8207801F0C7FEBDE83240DFF8040C09F0B6B831BD38B50C46200418D5DFF826
:20E08C00EC0B00780BF026FF05000ED02878B02808D1284600F004F920B1297905F10800E5
:20E0AC0008F006FF28460DF05FFA84F4004032BD002032BD7CB504001D460CD0ADF80010B4
:20E0CC008DF80220019400A801F029FE060019D1C5B164890CB9022614E00C200CF0E4FFF9
:20E0EC0008B913260EE00021016084808560DFF8881B0A6812B9086004E00A4611680029CC
:20E10C00FBD11060304676BD30B50D46DFF8681B0446086883B0002201E00246006890B19B
:20E12C008388A342F9D10368002A0CBF0B6013600DF06AF900A9204601F03DFE10B90DB1B9
:20E14C00019929603EBD01203EBD70B558BB012927D1DFF8180B416800230C2601E05B1CCF
:20E16C00DBB2DFF80C4B2478A34216DA31F833404FF6FF75AC42F2D0002400E0641C457821
:20E18C00E4B2AC42EBD201EBC3056D6806FB04552D88002DF2D0012070BDBDE87040107880
:20E1AC000DE0182070BD022070BD0022002803BFDFF8B80A407808700222104670472DE996
:20E1CC00F843DFF8A87A0446002078700C257868DFF89C6A406805FB04F868B10DF014F9F8
:20E1EC000020002204E0796801EBC001401C4A60C0B231788842F6D3307808FB00F080B2DE
:20E20C000CF052FF5FEA000927D0307808FB00F2002148460DF0B6FB00200FE0516805FB9A
:20E22C000CF34FF0000E23F801E059180CF1010CC1F808E0A445F1DBC144401C3178C0B23D
:20E24C00884207D2796801EBC0024FF0000CC2F80490EFE77C70002000E01320BDE8F283D8
:20E26C0001460020C90705D5002310220121DFF80C0D1FE7704701460020C90704D5DFF876
:20E28C00FC0C408900213FE77047DFF8EC19096821B18A888242FAD1886870470020704765
:20E2AC002DE9F04387B004460020ADF8100001208DF81200DFF8005DE86938B90AF014F97E
:20E2CC000CF0F2FE0028E86100F0E6801822002128460DF057FB2079022800F1010804F1B5
:20E2EC0008074FF6FF7917D006282CD008282FD00A2832D00C2855D00E2800F08880102813
:20E30C0000F08A80122800F08C80162800F09080182800F09680BCE00AF0E6F828802946B2
:20E32C00608809F019FD00283988288804D0814228BF014629809FE0814228BF014660887B
:20E34C0008F024FDA5E004A9204600F0AFF87CE004A9204600F031F977E000F0A2F80600F9
:20E36C0050D0608805AB4A460B2108F065FD03006B6023D02079BDF81620039000953146DF
:20E38C00BDF8140000F0A3F900F028FA060004D16088294609F02AFD29E0162E686808BFD4
:20E3AC0000262BE000F07DF806002BD0608805AB4A460D2108F040FD686020B93888ADF829
:20E3CC001000112645E02179BDF8162003910346BDF814100291798801910095314600F068
:20E3EC00FDF9060006D16088294609F00DFD002842D12BE0162E686808BF00260BF0E6FFBD
:20E40C000EB923E001263888ADF810001EE004A9204600F060F918E004A9204600F0E5F957
:20E42C0013E00DF1120204A9204600F080FA0CE004A9204600F0C1FA060007D18DF812002F
:20E44C0027E004A9204600F01AFB064696B1162E12D0607814280DD0207928702946BDF892
:20E46C00100068802E71608809F06DFC10B14FF0010801E0162E0CD160882B465FFA88F278
:20E48C00162108F079FC20B15FFA88F1284608F00FFD204608F0A7FB9DF8120007B0BDE8B4
:20E4AC00F08338880DF1160101F054BD2DE9FA4786B0044604F1080500F034FA05906A1DF3
:20E4CC000DF1120000902B796988288801F014FD002780464FF0FF0AB8F1000F5BD009E048
:20E4EC00BDF810300B54BDF81000716892B2000A5054571C0598BFB2401F87424BDA2079C5
:20E50C00BDF8122003904FF000090598CDF80490C01F80B20290414600F05CF9002802BFDF
:20E52C00328B2889904214D1F169E8680DF00CF878B1706858B900F048F9072108F07CFC24
:20E54C00706020B9069928880880112032E0B8F80A90BDF81220698804AB404601F01EFD89
:20E56C00B9F1000F8046B7D0706807F80090781C726880B24FEA29218154411C4A1C70688F
:20E58C00B8F1000F89B2ABD101F800A092B2706802F800A0571CBFB247B1B80830803146EE
:20E5AC00608809F0FDFB28B1162003E00699288808800A2008B0BDE8F0872DE9F04F89B021
:20E5CC00044604F1080005908A4606886088DFF8E85906F017FC07900027001FB84606907B
:20E5EC004FF6FF7900E0761C0698B84257DB04A80090059803794188421DB0B201F07CFCCE
:20E60C005FEA000B4BD0BBF80A60BDF810209BF80810608801F0F3FB5FEA00083FD100F0BA
:20E62C00DFF859460798001F00F050F805F118000090EB6900F0D2F85FEA00082FD17FB92D
:20E64C00608800234A46092108F0F6FB686018B9AAF80060112036E0288B801C688004E003
:20E66C00298B6888891C88421AD1298B0698C919884214DB6968BBF80A007854BBF80A107C
:20E68C006A6800F049F968682A8BE969BFB238180DF09EF8288BC7194E45BFB2A3D157B12C
:20E6AC00688897FBF0F028802946608809F088FB48B1162007E0B8F1000F08BF4FF00A088B
:20E6CC00AAF80060404609B0BDE8F08F80B202900020019070472DE9F04F85B00D46044676
:20E6EC0004F108066088DFF8D07806F08BFB4FF0000BA0F10108A0F1010A16E039883A8B8C
:20E70C00084612189245BCBFA8EB010139837B683A8BF969C0180DF05BF83888398B0818FC
:20E72C0038800BF101001FFA80FBB0888345BCBF3888504537DA306810F81B2000EB4B0092
:20E74C0004A9407802EB002080B201F003FC01000BD14FF0010900F02EF8786808B10BF049
:20E76C0035FE484605B0BDE8F08F00F039F81FFA88F0FFF7ACFF07F118000090FB6900F0AC
:20E78C002DF85FEA0009E6D178680028B6D100F01CF80F2108F050FB00287860AED100F0CA
:20E7AC000AF81120DEE76088394609F03BFB0028D8D01620D6E7306810F81B1000EB4B00FB
:20E7CC00407801EB002028807047608800234FF6FF72704706F118000090F369608853E27A
:20E7EC002079BDF81020039070472DE9F04786B08846044604F1080900F094F8059009F199
:20E80C00050204A8009099F80430B9F80210B9F8000001F071FB0027BA4605460FE07268D8
:20E82C00FF21B95480B272688154471C7068328BF169BFB238180CF0CBFF308BC719BFB2D9
:20E84C00BDB1BDF81020297A608801F0D8FA5FEA000A0BD1FFF7C4FF29460598801FFFF782
:20E86C0035FFFFF7B7FF5FEA000A10D06889A8F80000002F43D0708897FBF0F03080314615
:20E88C00608809F0DEFA002843D0162041E07FB9FFF79BFF112108F0CFFA706020B96889CC
:20E8AC00A8F80000112034E0308B001D708009E0308B7188021D9142DDD10599891FC01943
:20E8CC008142D8DB7168688978546989726800F023F8BDF81020B9F802100DF11203284620
:20E8EC0001F05CFB0546781C002DBFB297D07268BDF81210B954BDF81210090A92E7B9F80E
:20E90C000000A8F80000BAF1000F08BF4FF00A0A504606B0BDE8F087781C80B2090A815461
:20E92C00471C70476088DFF8906606F06BBA2DE9F041044604F1080784B00D46388890462F
:20E94C0002A901F007FB06002FD0307A80060BD5BDF8080000F092F903000BD060881222C6
:20E96C0031469847060021D1787A002814BF5220207901E00E2619E00190002000907B88F3
:20E98C007A683988608800F079FA060007D1787A70B9608809F066FA50B116200CE0162EDC
:20E9AC0004D1002688F8006002E0012638882880787A00B1002630465EE02DE9FF410446E2
:20E9CC0004F108068846308800A901F0C3FA002705004CD0287A80060BD5BDF8000000F056
:20E9EC004DF9030015D0608812222946984707003ED16588284600F004F9010006D14FF6F8
:20EA0C00FF7000F0FEF801002DD00D800022974B02E00E272CE0521C5878D2B2824222D269
:20EA2C0048680C2505FB02000588002DF3D10C2231460CF0CDFE0C22314601A80CF0C8FEED
:20EA4C00B28860880023172108F0F6F9039060B1B288B1680CF0BCFE608801A909F008FA0C
:20EA6C0048B1162008E0092702E0112700E001273088A8F80000384604B0BDE8F0812DE96B
:20EA8C00F04383B089460027044604F10805608800F0B7F85FEA00084AD02878012843D1F3
:20EAAC004146284600F050F8A0B1D8F804501820019068880090AB88AA682988608800F091
:20EACC00DDF90746162F02D10020A8602CE05FB3288827E000250EE0019070880090B3888B
:20EAEC00B268608800F0CAF90746162F17D10020B0606D1CEDB25D484078854214DAD8F8A1
:20EB0C0004100C2202FB05121646318861B16B1C83421DBF9089002816201820DCE7002FA3
:20EB2C00E7D03088A9F80000404600F07DF82FB9608809F0AAF920B1162003E0162F08BF6C
:20EB4C0000273846BDE8FE832DE9F84F0C46002100250E464FF00C0B44480EE0994202BF29
:20EB6C00BCF8027093B2BB4224D1BCF804305D19ADB29A18761C92B2F6B243789E420EDABC
:20EB8C0063680BFB063CBCF8003043B10029E5D1BCF80450BCF802201946AA18EAE7022E9F
:20EBAC002CDB28004FF0000904D00BF0FFFE5FEA000801D1002022E0CA4619E00BFB0A07A1
:20EBCC00B96859B1BA8809EB08000CF001FEB88848441FFA80F9B8680BF0F8FBBAF1000F9F
:20EBEC0004D00C22002138460CF0CCFE0AF1010AB2456068E2DBC0F8088085800120BDE815
:20EC0C00F28F1A4A5268002100E0491C184B1B78C9B2994206D232F831308342F5D102EBBC
:20EC2C00C10070470020704770B5044600250BE0B06808B10BF0CAFB0C22002130460CF0A8
:20EC4C00A1FE002030806D1C08484078EDB2854206D260680C2101FB050630880028E7D1D6
:20EC6C004FF6FF70208070BD47470020744800208447002035EF0000A448002080B5FFF737
:20EC8C0004FB00B1806802BD2DE9FE4F0D468046287AC00693461E464FF0000A0CD5584628
:20ECAC00FFF7ECFF030000F0E4800A222946404698475FEA000A49D128780C9F0D9CDDF8DA
:20ECCC003890022816D100F016F94FF42051401A012810D9801E3AD0401E14D0FD3876D0CB
:20ECEC00401E00F07D80401E6AD0401E6FD0401E00F09180A7E0002C2AD1E86801783980F9
:20ED0C000278416883E0002C22D1012038800021E868007830706889401C80B201F01AF95D
:20ED2C00398860B10278921C51183980418971704189090AB17002784168F01C68E0081D66
:20ED4C00388004220021701C0CF01CFE93E0002C62D1E8680488042038803470200A7070CE
:20ED6C000DF10201204601F0F5F805001ED0EC68BDF802204FF6FF7800AB414601F00EF93E
:20ED8C0040B92B786A688D48022105F0CBFF08B9ADF80080207802280AD161680222301D85
:20EDAC000CF016FD3888801C388001E0ADF80040BDF80000B070BDF80000000AF0705AE030
:20EDCC0054BBE868016840460CF063FD02E01CBBE8680088022139803070000A70704AE05C
:20EDEC00E8680CF0D1FD82B2A242B8BF4FF0070A41DB944208BF002206D009EB0401914291
:20EE0C00B2BF4A46121B92B23A80E968611830460CF0DEFC2FE014B14FF00B0A2BE0E86821
:20EE2C000721398001783170417871704188B1704188090AF17001793171C1887171C0887B
:20EE4C00000AB07117E05846FFF71FFA00281CBFD0F800C0BCF1000F0BD00F980290CDF8B7
:20EE6C00049000943B46324629464046E047824601E04FF00E0A5046BDE8FE8F2DE9FE432A
:20EE8C008046894617461E4602A9484601F062F805002CD0BDF80800FFF7F7F900281CBFE5
:20EEAC00D0F804C0BCF1000F1FD00A980B9C0090019433463A4629464046E047060017D19E
:20EECC00FE2C15D02878022812D100F014F842F6021188420CD13878797800EB012292B289
:20EEEC004946404600F04CF802E00E2600E001263046BDE8FE8368680178407801EB0020F7
:20EF0C0080B27047704700207047E0B58DF808200223120A8DF80920FE22019200220092D6
:20EF2C0002AAFFF7ABFF0EBD7CB50129044605D0022922D1012108F0E7F9F0B92046FFF717
:20EF4C0060FE08B1FFF770FE01A800904FF6FF7502231B4A2946012000F0CEFF0BE0F0681E
:20EF6C00016820460BF0D2FDBDF8042000232946304601F013F80600F1D173BDE0460020D1
:20EF8C00F8B5104F04463878FF280D46164611D00A200CF0D3F968B1B12101704480002175
:20EFAC0041700171C580068101463878BDE8F4400BF02AB8F1BD0000EC47002058870100C8
:20EFCC006C870100474700202DE9F84FDFF8704ADFF8705A207007210020A860DFF8680ACB
:20EFEC0001700D2141804FF404718180DFF85C0ADFF85C1AE9608A7E0270FF2ACB7E43707A
:20F00C0008BFFF2B0E7F86704F7FC77091F81EC080F804C0C97F417116D1FF2E08BFFF2FC5
:20F02C0012D1BCF1FF0F08BFFF290DD1DFF8581B0A7802704A7842708A788270CA78C2703F
:20F04C000A79027149794171DFF8401B0278DFF8B48BDFF8B47BDFF860EB0A7042784A7062
:20F06C0082788A70C278CA7002790A714079DFF89C2B4871FF21DFF8440B017041708170BD
:20F08C00C17001714171101D017141718171C17101724172002101708172A0218181032108
:20F0AC0081730721C1730021017428214182012101750021817502F15A0100224A70012256
:20F0CC000A7042750020DFF8481B0880D8F82C30DFF8401B58780870197839709A782A7085
:20F0EC009E683679761E8EF80060DB78DFF8286B6B704FF4967333801B261B2392FBF3F34C
:20F10C0006FB132202B10122D21850436880881C1821484380B20BF0C7FFDFF8006BB060C5
:20F12C00002855D03878002855D04FF49071484380B20BF0B9FFDFF8E89AC9F8040008B9E6
:20F14C00B06843E03878382148430BF0ADFF686020B900F08AF8D9F8040037E03878DFF8A7
:20F16C00C4AA00010BF0A0FFCAF8000028B900F07CF800F07DF8686828E03878DFF8A8BA4D
:20F18C0000010BF091FFCBF8000048B900F06DF800F06EF868680CF037F9DAF8000015E0A5
:20F1AC003878302148430BF07FFFDFF8801A086088B900F05AF800F05BF868680CF024F9B6
:20F1CC00DAF800000CF020F9DBF800000CF01CF94FF4804144E0DFF8580A0068804707467B
:20F1EC0004F055F80CF098FDDFF8480A0069006880470CF08DFD0CF087FDDFF83C0A00212C
:20F20C0001600160C160C16003F08EFE0CF0CCF8DFF8281A40F2FF7008600CF071FD0646C7
:20F22C000CF06EFD864208BF0CF066FDD8F80C00697800880843DFF8081A08803846DFF807
:20F24C00041A096888470C21DFF8FC090CF050FD207800210AF072FE00F092F84FF40051C1
:20F26C002078BDE8F44F09F07BBFB0680CF0CCB8D9F804000CF0C8B830B50C46E00785B093
:20F28C0013D50CF031FD38B100218160DFF8BC090068010018BF8047DFF8A40700780021A7
:20F2AC000AF04CFE84F001005EE0A00707D500F05DF83C200CF014FD84F0020054E0610708
:20F2CC00DFF8800724D5DFF8581940688A7849684FF4907303FB0211382303FB02008D1DCC
:20F2EC0011F82C2F04924A8912090392AA8B02920122C9884908019100F12C01009190F82E
:20F30C002830297800200CF0EBFC84F004002BE0210607D500F02AF83B200CF0E1FC84F0A5
:20F32C00800021E0A10508D5DFF82409016841F00041016084F4007016E0610504D503F06D
:20F34C001EFA84F480600FE0610405D581200CF0C3FC84F4804007E0A10443BF4FF0FF3172
:20F36C00816084F40050002005B030BD0020049003900290019000900146002301227047D8
:20F38C00F8B503F0ABFEDFF8A808DFF894680068DFF8747880470446002004F021F840F223
:20F3AC0001400CF095FCDFF88C080069C06880470CF0AEFCDFF84C08DFF89818C06A806846
:20F3CC0040790870002501F0F0FCDFF88C080CF07BFC0CF075FC0CF06FFCDFF880080021BC
:20F3EC000170017141718171C171017241720022DFF8180800F10E010A70A0224A800722DA
:20F40C004A7103220A7100220A738A7200F8592F0122CA720021427081700BE070684FF441
:20F42C00907101FB05004179012908BF01F0ACFA6D1CEDB238788542F0DB0CF039FC09F0E8
:20F44C00A9F901F02DFADFF8181800200870DFF8141808700120DFF8101808700020DFF83D
:20F46C000C1808700120DFF8081808700020DFF804180870DFF800180870DFF800180880EB
:20F48C00DFF8FC17087003F064FEDFF8B8170968204688470020F2BD2DE9F0411446DFF816
:20F4AC00685708B12A780270DFF8748711B198F801000870002C3ED0002600271CE0C9B219
:20F4CC00DBB2085502F1280001791955591C427900F034F8827900F031F8C27900F02EF882
:20F4EC00027A00F02BF8427A00F028F80078C9B24E1C08557F1CFFB2287887421BDA3846C3
:20F50C000CF0D2FB0028F5D1D8F804004FF49071F6B201FB0700DFF82C15496837553822B6
:20F52C000068007802FB0712711C4B1C80280CBF00200120C3E70020BDE8F081C9B20A5567
:20F54C00491C704738B50C00054601D1122032BD0CF0AAFBC0B900F018F901FB05000168C7
:20F56C000978402901D00C2032BD00210A5D431A491C102983F8E220F8DB012180F8E41048
:20F58C00052101F091FA002032BD10B504460CF08BFBB0B900F035F801680978402901D073
:20F5AC000C2010BD00F1F0010A78012A03D106220A77022102E006224A700D2101F074FAC6
:20F5CC00002010BD10B504460CF06EFB60B900F018F890F8F810022907D1817900F1F9022C
:20F5EC00002007F049F8002010BD01680978802903D108210CF054FBF5E74029F3D11120A5
:20F60C0010BDDFF81C0640684FF4907101FB0400704710B5040001D1122010BDDFF80006FE
:20F62C00407808B10C2010BD01F03AF92078DFF8541600F01F0020704A78104048700020CE
:20F64C0010BD38B50D00044606D0DFF8B805C06A80680079844201D3122032BD03F04EFE9E
:20F66C00032803D0204601F0E5FB02E0DFF8E405047001202870002032BDDFF88815C96AC4
:20F68C0089680979884201D312207047DFF8281508700020704710B5140019D011B1012953
:20F6AC0008D015E001F0DFFB10F1800F20700DD1302010BDDFF84C05C06A8068016800796F
:20F6CC0000EB4000401810F8030C2070002010BD122010BD2DE9F0410C0082B00746904660
:20F6EC001D4627D0D74E3078404528D338460CF0DBFA002847D100F048F801FB070706F098
:20F70C0091FB1B2298FBF2F21B2303FB128303B10123718810181818814204DA01200CF0E5
:20F72C00BBFA07202FE030781C2814DA002D18BF012D01D0122026E0B8F11C0F04DB8A2060
:20F74C000CF0CAFA30201EE02B464246214638460CF09EFA13E042462146384601F00EFAC4
:20F76C0088B920460AF032FEB879ADF800000DF102020120ADF8020000A906F0B9FF384637
:20F78C0001F0BBFA0020BDE8F681DFF8940440684FF49071704770B50646282E01DB122094
:20F7AC0070BDDFF8DC44207808B1212070BD03F095FCDFF88054286980688047700000F685
:20F7CC00621189B200200CF05FFADFF8BC0440F6070101804060002141808160017B01F0D4
:20F7EC0060010173417B01F0F00141F00201417302218173DFF89414016100214161C17BAB
:20F80C0001F0F00141F00101C1730C212170296989698847002070BD2DE9F04104460D4651
:20F82C00282CB8BF262D16460FDA002E18BF012E0DD0022E18BF032E09D0042E18BF052EFB
:20F84C0005D0062E18BF072E01D012205AE0DFF8308498F8000008B1212053E003F03EFCD5
:20F86C00DFF82C74DFF82C1441F60A0038800022002078807F60B860387B00F06000387316
:20F88C00787B00F0F00040F00200787360006630B8738020F873DFF8000438617961028070
:20F8AC00857040F6C4124260C670027A02F0FE02027200224272C260C27A02F0F00242F037
:20F8CC000102C272002008800021DFF8D0038180C18004708021457086700172B648D54CDE
:20F8EC00007801F0A7FA092088F8000000222369DFF8AC035B680021984721698969384658
:20F90C0088470020BDE8F08170B50446282C01DB122070BDDFF86853287808B1212070BD7F
:20F92C0003F0DCFBDFF86863DFF87813766041F609003080716100207080B0600022307B68
:20F94C0000F060003073707B00F0F00040F00200707360006630B0738020F073D248306101
:20F96C0002600F22027101224271C84A8260552202734273827300220261C27B02F0F0026F
:20F98C0042F00102C2730020088048808880002280208871002088600021C0484170FF21BC
:20F9AC008170047000218180C1808021A14C01720A20287000212369B9485B6898472169D6
:20F9CC00896930468847002070BD70B5AC4C2078092818BF0A2801D0212070BD40F20240F5
:20F9EC000CF076F92078AD49092809D1A948008888809848007801F01DFA0021002015E0E0
:20FA0C000A2815D1A74A538810889688CB801D1875198D809279802A18BF812A0FBF7F227F
:20FA2C00A24B93F90030D21A0A7201210CF028F90CF06EF90020207003F08BFB002070BD91
:20FA4C00844C0020344800208C4C00206C4C0020B63F0050F8B58A4C2178092918BF0A29A1
:20FA6C0063D00B291CBF0C290D295ED0674DA97C002918BF012904D003291CBF0229042969
:20FA8C0003D12A79002A18BF012A7BD1032918BF022902D12B8AA02B74DB002843D0012837
:20FAAC0070D1A87B012840D000291CBF012904290ED10CF0E1F8FD21084236D1524800780D
:20FACC0000285FD056494978814201D10920F2BD012008F078FE286000260120A87303F08A
:20FAEC00FDFA0CF0C5F87248182101FB0607387B40F080003873A87C012807D026B90CF041
:20FB0C00FFF800F5C87000E00020B860761C032EE9DB207828B9A97C6648085C20700CF0DA
:20FB2C00A3F80020F2BDA87B08B92120F2BD40480068804706460CF093F8012804D00CF0F8
:20FB4C00D3F82968884207D103F0C8FA40F202400CF0BEF8012700E000270020A8732868C6
:20FB6C0003F03EFC28460CF077F8207810B903F0F0FA02E00FB10CF077F8324909683046C6
:20FB8C008847CEE71220F2BDE81200507C4C0020017841F08F010170C17841F02001C1705B
:20FBAC00817841F0300181700020704710B11C494978017000207047854C0020744C002016
:20FBCC0070B504460D4616460CF06EF830B9FFF718FD00F58E7005704680002070BD0C4BD3
:20FBEC0010B1012802D00AE019807047188810701888000A507000209070D0707047122030
:20FC0C0070470000F0C40100BC4C0020EC490020984C00208B4C0020964C0020F44E002090
:20FC2C00B04C00200C4F00201C4F0020104F0020484800202C4F0020101004400000046004
:20FC4C00944C00204C480020E84E0020C44C002004000940B94C00208C4A00209C4C0020EE
:20FC6C00864C0020BA4C0020874C0020884C0020BB4C0020894C00208A4C0020BE4C00203D
:20FC8C00B84C0020D04E0020404E002029417671284E0020204F0020A84E0020DC4E002072
:20FCAC0002000080C44E0020844E0020C04C0020244C0020C0D9001070B5DFF8C859287870
:20FCCC00062460430BF0F0F9DFF8BC19086008B9132070BD0020FF2206E03380401C0023D9
:20FCEC00F270B2703371C0B22B78984209DA0B6804FB003600280CBF4FF6FE734FF6FF73F6
:20FD0C00EBE70FF2A14006F05FFF0FF6A90008F017F80FF6E90007F063FA002070BD70B566
:20FD2C000446208868B160680378426800F073F948B9606803784268DFF8500900F06DF9EF
:20FD4C0008B9022070BDA078C01F0A2801D3182070BDDFF83C59288820B12188C0F580302A
:20FD6C00884201DA012070BD0C200BF09DF9060001D1132070BD002007E06268298802EB20
:20FD8C000012401C5181491C298080B221888842F3D30020306008222146301D0BF018FD00
:20FDAC00686810B96E6004E0084601680029FBD10660002070BD38B502460846DFF8D0184B
:20FDCC004C68002301E02346246894B1A5686D899542F8D12268002B0CBF4A601A6018B115
:20FDEC000822211D0BF0F4FC20460BF00DFB002032BD012032BDDFF89C180870704710B59D
:20FE0C00044610461422114203D000F00FF9012204E04A0608D500F009F9002201462046ED
:20FE2C00BDE8104007F0B1BAC80701D4022010BD002010BD70B504460D46A8061E4609D52D
:20FE4C00104600F0F3F801462046BDE87040012207F09BBA882005420FD0104600F0E6F802
:20FE6C00014605F00802204607F08FFA48B1717A41B1317A012904D070BDA80701D40320F7
:20FE8C0070BD002070BD7CB50446002000900D460223DFF804284FF6FF71012000F02CF84C
:20FEAC00060026D0002304221D21204606F0C4FF0190E0B170890199ADF800002B460420A5
:20FECC00ADF80200002201200870002001994870FF20019988700199C87000A9204600F0C0
:20FEEC0007F9040006D001980AF070FA02E0152400E00124204676BD2DE9F0478146DFF87B
:20FF0C00900744688A4690461E4600E02468F4B1002700E07F1CA088BFB28742F6D2A068A3
:20FF2C0000EB07156889484528BF8245F2D33EB1297868683346424604F0F4FE0028E9D095
:20FF4C00089810B1A16849890180284600E00020BDE8F087F0B5DFF83827536800E01B6855
:20FF6C00D3B19D686E89B042F9DB9F88BA199042F5DA4FF0000C01E004F1010C1FFA8CF4CD
:20FF8C00BC42ECD205EB0412B2F80AE08645F3D101B10E801046F0BD0020F0BD2DE9FC410D
:20FFAC0004460027ADF804704FF6FF786089404515461E4608D001AA0092401C23786268EC
:20FFCC0080B2FFF799FF07462378626800F023F830B923786268DFF8B40600F01EF808B1FA
:14FFEC0060890CE023786268DFF8B00600F015F858B11FB164
:020000040001F9
:20000000BDF80400A84203D0284600F0C7F803E07889404400E0608906B130803846BDE892
:20002000F681DFF88806022104F082BE80B500F08AFA00B1008802BD80B500F084FA08B190
:20004000807802BD102002BD70B5012982B00446154616D0032918D0052925D0072927D090
:20006000092929D00B292BD00D292DD00F292FD0112931D0132933D0172934D0192936D0B6
:2000800039E0294607F065FE33E008F033FAADF8000000A9204607F065FE06002CD1298884
:2000A000204606F079FE27E0294607F067FE20E0294607F07BFE1CE0294607F087FE18E0DD
:2000C000294607F099FE14E0294607F0A3FE10E0294607F0ADFE0CE0294607F0B8FE08E037
:2000E00007F0C6FE05E0294607F0C8FE01E007F0D2FE064600E00226304676BD2DE9FC413C
:200100000D46044616461F4601A900F029FA5FEA00081DD156B100F037F8BDF80000FFF7B4
:200120008BFF00F036F85FEA000811D12946204607F0C2FE5FEA00080AD1019CFF2F07D08A
:20014000A31C1E2221460FF2954006F007FEE7704046BDE8F6817CB50D460446164601A99B
:2001600000F0FEF917280ED04EB1002000F00CF8BDF80000FFF760FF00F00BF818B929462B
:20018000204607F08EFE76BDADF8000000A92888E6E601460122204607F0FDB810B50446EE
:2001A000FFF744FF08B1611E0C18A0B210BD00002DE9F0470D468046A87800241E2888B063
:2001C000914614D1404600F0DFF904001EBFA078FE28FF2822D0002000900022AB78E07890
:2001E000414606F090FD204600F0E2F916E0122804BF6878012813D0404600F0C5F90400AD
:200200001CBF2279002A0BD0100607D4A978404606F0D5FD207940F08000207100206BE0BE
:20022000DFF87C743878FF2817D0A978881E172813D20FF27C4A48080AEBC000A0F10806E3
:20024000306800281CBF7068002806D0287810B96A78012A03D1122901D006204CE002A9DA
:200260000091AB88AA6869783668B047060042D1AA7852080AEBC20202A952F8042C404639
:20028000904706001CD1AB78042B34D002A8009000223878414606F036FD06002BD1A9785F
:2002A00002A806F0A5FD10B1002089F80000A878122804BF697801291DD0E4B120711AE065
:2002C0006878C0B9A8788DF800008DF8046000A9A878042818BF0628BDF80800ADF80200D9
:2002E000404607F036FD28B100AB01221621404606F048FD0026304608B0BDE8F08700201F
:2003000070472DE9FE430D46804628886988814200D308B901206AE00021ADF804100291E6
:200320004FF6FF7900E0401C002100910A466988002380B2FFF7E6FD070034D0BDF80400DF
:20034000002835D100AB4A460521404606F07AFD040001D111204AE002943878022806D1A3
:2003600001208DF80600BDF80000860824E002208DF806001221BDF8000090FBF1F6788982
:2003800004F8010B102200F034F81034BDF80400401CADF80400B6B2BDF80400B04202D21E
:2003A00078894845BFD1BDF8040080B90A201EE09DF806000128E2D138780228F3D17889EF
:2003C00004F8010B022200F014F8A41CDEE701A9404607F0D3FC48B101AB052216214046F1
:2003E00006F0D0FC10B1029809F0F6FF0020BDE8FE837889000A04F8010B204679680BF057
:20040000EDB910B582B04C880888844200D308B9012016BD00F015F808B90A2016BD0020B2
:2004200016BD10B582B04C880888844200D308B9012016BD00F005F808B90A2016BD002075
:2004400016BD002200924A1D0B7921465AE510B5044682B0084600A90088FFF781FD08B98F
:20046000012016BD017ABDF800202046FFF7CDFC16BD70B582B006460D46002401E0641CC5
:20048000A4B2A888844229DA286810F8142000EB440000A9407802EB002080B2FFF760FD1F
:2004A00050B9286810F814100170286800EB440149784170012076BD017ABDF800203046BA
:2004C000FFF7A3FC0028DAD0296811F814200A70296801EB440252784A7076BD002076BDA0
:2004E00010B50C4682B020886188814200D308B9012016BD23796D48621DFFF794FD08B9BF
:20050000102016BD00200090237961882088621DFFF7F8FC08B90A2016BD002016BD38B5F4
:2005200004460D4600A92888FFF71AFD08B9012032BD017ABDF800202B462046FFF780FC4E
:2005400032BD002070475549496800E0096829B18A6852898242F9D1081D7047002070474D
:2005600010B50C4600F010F860B104B120608078FE2801D1172010BDFF2801D1002010BD4C
:20058000162010BD022010BD10B5424A1268002100E0491C3E4B1B78C9B2994206D20623C5
:2005A0004B439C5A8442F4D1981810BD002010BD10B50446A01C06F0D9FBFF20E07010BDF1
:2005C00010B50C46FFF7E0FF30B101794A1C944204BF01F08001017110BD000010B582B02D
:2005E00004001EBFA078FF28FE280BD0002000901E232188E078172206F085FBFE20A0700B
:20060000FF20E07013BD000070B504464FF6FE70844282B036D04FF6FF7651B92046FFF75B
:20062000B3FF78BB3046FFF7AFFF05002AD0048073BD012906D12046FFF7A6FF050021D010
:200640002E800BE002291DD10121204606F062FEC0B92046FFF798FF050013D0A878FF286F
:200660000ED0FE2807D0002000901E23E8781422214606F048FB2846FFF79AFFFF20A87044
:200680000020287173BD70470448008870470000B4480020A0480020588701002C47002098
:2006A0004547002090870100608701005487010021490100FF0201005349010003030100A1
:2006C000D1490100030401005D4A010023040100BD4A01004F0401002D4B01004F040100FE
:2006E0006B4B0100730401005D4A0100E1040100DD4A01001F0501000000000000000000F0
:20070000C74B01001F050100474C0100430501002DE9F843099D002600274FF6FF7835F897
:20072000174044451CBF761CF6B27F1C062FF6DB00270DE00CF1010C5FFA8CFCE646B645FD
:2007400005DA35F8179035F81EE0F145F2D1E7B2B74208DA35F81740444504D0A14202D3B5
:200760007C1CA446E8E7B7420DD176B1884202D04BB1994207D3089811460BF06FFA47F645
:20078000FF71884201DB012000E00020BDE8F2832DE9F843DFF86C08DFF86C98017899F887
:2007A0000000884200F07F8000204FF4907301E0401CC0B2884276DAD9F8042003FB002836
:2007C00008F104063278002AF2D1DFF840180968B070382202FB00110122327008F1610731
:2007E0000022727001207871F872B280F280307388F8392008F18E007261327672830270F8
:200800002031FA770A75FF258022FA7408F1E80400227A75BA760D706276A276E2762277DF
:20082000E283228488F80B21027108F1E3000270427022606260A2722273227208F5877019
:200840006273028042808280C2800A720A734A738A73CA730A744A740421FF2208F1770059
:2008600009F03FF93D707D70BD70FD701F2038710020DFF89C17421800EB0803527883F8EC
:20088000F920401C0828F6DB0020207499F80000401C89F80000C0B2012804BFB07889F8B9
:2008A0000200404600E00020BDE8F28310B5DFF860470821601C09F013F9607840F00100A0
:2008C000607010BD70B5044609200BF0C3F958B300F089FB0A30C0B2E880002105F1080674
:2008E000296029716971032030700822092006F8010F04F1F901701C0AF070FF94F89200D5
:2009000028B133460922032120460BF09FF902F0FBFCDFF800371B69DB6C0246A06E2946B6
:2009200098470020E083012070BDF8B505460E46DFF8E446DFF8DC7608E0007A03281CBF29
:20094000481C20703969A86E496D88473969A86E096E8847217810B10279032AEDD0DFF8D2
:20096000BC0600781C2814DA99B1DFF8B4060078814205D2012E0CD1DFF8A806007840B124
:20098000A879ADF80000ADF8021000F069F800202070F1BD2DE9F8430446DFF88C06DFF850
:2009A00078660068DFF86C7680478046002002F01DFDA06E00B306E0007A00F057F839697D
:2009C000A06E496D88473969A06E096E88470028F2D13969A06E496E8847054606E0287A9A
:2009E00000F044F8284609F0F7FC2D68002DF6D13969A06E096D8847206FA0B13969096EFA
:200A000088470546A946D9F8080020B109F0E4FC0020C9F80800D9F80090A945F3D13969AC
:200A2000206F096D8847DFF8F40500781C2808DA307840B1A179ADF80010ADF8020000F075
:200A40000FF80020307020460BF0FCF820460BF009F9DFF8D815096840468847BDE8F18374
:200A60000DF1020200A9012005F048BE032802D03078401C3070704770B50446DFF8A80564
:200A80000068804704F17601FF234A79521E4A71D2B20AB94B7008E0002215197735521C57
:200AA0006E782E70032AF8DB0B7100220A70BDE8704011E038B50446DFF86C0500680D461A
:200AC0008047002204F176010A704D704A790AB901224A71BDE83440DFF850150968084711
:200AE0002DE9F04100260027DFF81C45DFF8148508E031684968806889680BF09FF800B964
:200B00002E467F1C98F80000FFB287420CD260684FF4907101FB0705286869794068002987
:200B2000EFD0002EE5D1EBE7B079BDE8F081F0B54FF6FF710C460023DFF8CC2403E0A642A0
:200B400098BF34465B1CDFF8BC542D78DBB2AB4216D255684FF4907606FB03556E79002EEB
:200B6000F0D005F180068C42377804D1002F0CBF6C8E3489E6E7002F14BF36896E8EDEE7E7
:200B8000A04288BF2046F0BD2DE9F84304468846164600270FE02A4641460AF01FFE3846B2
:200BA000471CC3B203B101232A46494620460BF075F8A844761BB6B276B11C2EACBF1B25B7
:200BC000F5B228460BF036F85FEA0009E3D181200BF088F8072000E00020BDE8F2832DE95E
:200BE000F04DDFF82474DFF84864DFF848A40C46154679684FF4907282B002FB0018307841
:200C000001289B4602D0022830D068E0B068BBF1020F04D100F070F80020B06029E0738850
:200C2000B188EA18914205DA00F066F80020B0608B2052E02A46214618180AF0CFFD7088A7
:200C40002818708080B2B288904248D198F87400802817BF81287F209AF80010401A00F057
:200C600043F80020B0807080022033E0BBF1020F35D1042DB8BF8C202FDB21786078091D0C
:200C800041EA0020DFF89413B08080B20978814238BF8A2021D3A84238BF8B201DD30AF0DA
:200CA000C5FFB060C0B12A4621460AF097FDB28895420BD198F87400802817BF81287F20D3
:200CC0009AF80010401A00F00FF808E07088281870800120307002E081200BF003F8204671
:200CE000BDE8F64D09F078BB40B200905B46B168B878D2B208F0E6BA0021B18071800221F2
:200D0000317009F069BB2DE9F84304462068007840284ED1E08B00284BD0C7480078012895
:200D200047D102F0E1F9C0480068804705460AF0EDFF618E40F6C418891C08FB0109B24AB8
:200D40002068A1799278476891422CD1B86849460AF074FF48B30AF0CDFF064640F20240CB
:200D60000AF0BCFF304602F041FB316948460AF059FF618E08FB01F2B0FBF2F0228980B251
:200D80008218628148432268126908FB0020B86004F1380041780170204600F0BAF8304636
:200DA00007F088FD01E00069B8602846BDE8F44392E6BDE8F18330B587B040F60200ADF881
:200DC00000000020ADF8020001900290ADF80C0001208DF80D000020ADF80E00974C984D2A
:200DE0002088984A1278ADF8100002EB4202E86A816809685118B1F80110ADF81210854995
:200E000040680969059000A8C9698847012807BFBDF80200B0F5806F892000F0EBF8E86874
:200E2000894A418812781143218000788149800643BF86480068400A0020087007B030BD11
:200E400010B582B004461020ADF8000004EB44017B48C06A8068006808186E49B0F801008B
:200E60000969ADF8020000A8896988477548047013BD73487349C06A80680978006801EB91
:200E800041010856704730B50A7902F01F020A71002280F83A200023545C24FA03F5EC0735
:200EA0000BD590F83A502D1803EBC20485F83C4090F83A40641C80F83A405B1C082BEBDB6A
:200EC000521C052AE7DB30BD10B500F138025378D47801FB0431252391FBF3F3252404FB8C
:200EE000131111700023117800E05B1C9478DBB2A34206D21C1894F83C40A142F5D10846C1
:200F000010BD91FBF4F204FB1211081890F83C0010BD70B5044604F1380004F18E06017821
:200F20004170608921890AF099FE05463078012801BF70882189491C884206D104F1610101
:200F40002046FFF7A0FF0020307029462046FFF7BBFF21680978402904BF3D49887370BD6D
:200F600080B580F8F1200AF059FE38B939480078BDE804404FF4804108F0F8B801BD70B500
:200F8000044602200AF066FE60B300F02CF8C01CC0B2E880002105F108032960297169718B
:200FA00003201870022003F8010F94F80C01587094F8920020B10222032120460AF046FE1D
:200FC00002F0A2F9134B1B69DB6C04F16806024630682946984704F10E000021018200889B
:200FE000F082012070BDA0F1090594F8920000B10420704780B50AF075FE1749002008704E
:2010000001BD0000BC4C0020B04C002038480020D04E00202C4F0020BA4C00203448002093
:20102000874C0020884C0020484800204C4800200C470020C04C0020BB4C0020944C00209F
:20104000F0C40100B94C00203548002080130050E04D0020844C0020B84C00202DE9F0418E
:2010600004468846122740464FF6FE7188421646DFF88C5808D1A86950B30268100027D0A6
:2010800041462046904720E04FF6FF71884212D1A86938B10268100004D04146204690471E
:2010A000070005D03146204600F07CFA07000FD12C706E700CE006F0FFF848B10078A04284
:2010C00005D1314640460AF0A5FD074600E003273846BDE8F08110B504462389E288A18868
:2010E000608884B005F0F4FE08B9022029E02088012106F00FF908B9142022E0208806F0A4
:201100001AF9042812D1DFF8F80781894FF6FF72914218BF112014D12188818161888180C2
:20112000A188C180E18801812189418100200290019020890090E388A2886188208805F057
:2011400093FF04B010BD70B50C46DFF8B8170978022918BF0129154601D1122070BD0DB960
:20116000022070BD06F0A8F8060001D1142070BD1CB1307940F0020030711022294606F170
:2011800014000AF02BFB28697062002070BDF8B506000C4601D10220F2BD308806F08CF891
:2011A000050001D11420F2BDDFF858070078022818BF012803D0287B082802D10CB1122035
:2011C000F2BDDFF83C77786908B11120F2BD2C2009F070FF786108B91320F2BD2C2200F0EE
:2011E00096FA7869318841801C22311D001D0AF0F5FA796902200870287B79693288082887
:201200000CBF012000200B1DDFF8FC16097800F085FB06461CB12146284600F041FD0EB1E5
:2012200000F035FA3046F2BD38B504460D4606F043F808B9142032BD8DF8005000A92046E7
:2012400000F068FC32BD38B5002298B101230624251815F8015C303D0A2D0BD203FB052258
:201260000A25641E6B43E4B2002CF1D11046BDE8344001E0022032BD30B505460C4685B073
:20128000204606F019F808B9122019E0DFF87C06854228BF022013D21022002100A80AF0F2
:2012A00077FB280A8DF801008DF80050280C8DF802002146280E8DF8030000A800F071FB4B
:2012C00005B030BD2DE9F0418046DFF838060078022814BF0128122082B00C4615461E4637
:2012E0002BD00DB9022028E0404605F0E5FF070008BF142021D0B86A08B10AF08BF81C211C
:2013000028460AF0E7F90100B96208BF132014D0387B082809D146B1887E009001F112033A
:201320000A8A404600F0E6FC00E00020397941F004010CB141F002013971BDE8F6812DE90C
:20134000F0410D4605F0B8FF04001ED0656200F0E1F9C5B205B92578666A94F805801020F7
:2013600009F0F2FF070010D0D0203870062200207870A11D0920B87087F80380381D0AF074
:201380002DFAFE60394628461EE0BDE8F0812DE9F04104460D4690461F460E2009F0D4FFAE
:2013A00006000FD0D020307006220020707041460C20B070B580B01D0AF010FA3773314696
:2013C000204601E0BDE8F081BDE8F04108F022BEF0B5040087B051D0A079DFF82455002870
:2013E00028690CBF0826042608B9DFF824050778DFF82005006820B1416808001CBF002018
:201400008847E07904F1080104F0AEFE217DE07105910246618A049104F10803218A03917A
:20142000E18902910196A18800913946E07800F056F8E07870B9172003900122E0890290E0
:20144000019604F108000090E379A188384605F0DCFEE070286908B100F031F9287868B129
:20146000697800F09FF848B1E378312B04D0A2882978184600F061F80020287007B0F0BDF2
:2014800070B505460026A88805F016FF18B10678A88805F0E7FEDFF86844207838B186425F
:2014A00005D1617800F07EF840B1002020702EB1AB79AA88A878314600F03FF8606908B101
:2014C00000F0E5F8A88805F036FF042802BFA888A189884204BF4FF6FF70A08170BD2DE9F9
:2014E000F0410646884617461C46162009F02CFF050020D0D02028706E700520A870EF7091
:201500002CB106222146281D0AF068F904E006220021281D0AF03CFA069868812946079888
:2015200028730898E881099828820A9868820B982875404648E7BDE8F081F8B504460D46DB
:2015400016461F46082009F0FFFE48B1D02101704470062181708680877101462846DCE016
:20156000F1BD2DE9F04180460D4616461F460C2009F0EAFE040013D0284605F09DFE08B9E9
:20158000DFF88C030078D021217084F801800721A170A580E680278106996181214613E7A0
:2015A000BDE8F08110B50C4605F09AFE28B12146BDE8104040880AF02DBB122010BD2DE97D
:2015C000F84F0746894692461C46484605F074FE5FEA000B1EBFCA4D6969002955D00A6A9D
:2015E000182002B134208A6A02B1143004B11C30496A01B1163080B209F0A6FE060044D02C
:20160000182200F084F800F085F85FEA000808BF9BF80080D020307077700A20B070A6F82D
:20162000049086F806A006F118076969086A38B1B7603846096A00F11C071C220AF0CEF895
:201640006969886A38B1F7603846896A00F1140714220AF0C3F83CB13761384600F11C0707
:201660001C2221460AF0BAF86869416A29B177611622416A38460AF0B1F831465FFA88F09F
:2016800008F0C8FCBDE8F14F01E0BDE8F18F10B59B4C606990B1006A08B109F0BBFE60694F
:2016A000406A08B109F0B6FE6069806A08B109F0B1FE606909F0AEFE0020606110BD10B525
:2016C0008F4C206918B109F0A5FE0020206110BDF8B504460D46284605F0EEFD060015D050
:2016E00000F018F8070008BF3778062009F02CFE06000BD0062200F00AF8D02030707470B5
:201700000E20B070B5803146F8B206E0F1BD00210AF03EB9262004F017BCBDE8F44008F0A1
:2017200079BC2DE9F84305460E4617469846304605F0C2FD5FEA000921D0102009F004FEB1
:2017400004001CD01022FFF7E2FFFFF7E3FF08B999F80000D021217065700F21A170A680A8
:20176000277284F80980C0B20899A1720999E1720A99E1602146BDE8F44308F04BBCBDE8E5
:20178000F1832DE9F0410746884605F095FD040022D00E2009F0D8FD05001DD0FFF7BAFF59
:2017A000060008BF2678D0202870062200206870A11D0B20A870E81C0AF010F818F0010105
:2017C00018BF012129736F8118F0020118BF01216973F0B22946F7E5BDE8F0812DE9F14F4B
:2017E00090460D469946404605F066FD07000A9EDDF82CA0DDF830B00D9C3ED09DF80000B2
:2018000000283AD1387940F010005FEA49714CBF40F0020000F0FD00002E08BFBAF1000FC8
:2018200008D1BBF1000F08BF002C03D100F0FB00387122E040F0040038713CB1206978628A
:201840001022214607F1140009F0C8FF3EB135B9B86A08B109F0DEFD1C2130460AE0BAF14F
:20186000000F0AD0012D08D1B86A08B109F0D2FD1C21504609F02EFFB862214D686900285B
:2018800039D06EB1006A20B91C2009F013FC696908626869006A18B11C22314609F09EFF0E
:2018A000BBF1000F0ED06869406A20B9162009F001FC696948626869406A18B11622594678
:2018C00009F08CFF74B16869806A20B9142009F0F1FB696988626869806A18B114222146D5
:2018E00009F07CFF9DF8000053464A46414601B0BDE8F04F63E6BDE8F18F074908607047BD
:20190000A8460020754600200047002040420F007446002004470020984800202DE9F84350
:20192000DFF80C5704462868894690461E46002708B1112033E05EB1212004F005FB317E73
:20194000814205D3222004F0FFFA317E884201D2022024E0782009F0ADFB286008B9132096
:201960001DE0782200210AF013F829684F7028680470286880F802902868011DA1F80080F5
:201980004E60CF6180F8247014B100F0C0F907462968012048700FB100F0E0FA3846BDE88B
:2019A000F28338B5DFF888562B68002433B193F82420022A1CBF032A042A01D0122032BD52
:2019C0009A888A4201D0022032BD0146102203F10C0009F003FF28681021353001F066F84E
:2019E000286800F1250200F135010C3000F00DF92868417802781AB103290DD1022107E044
:201A0000042902D10221417006E0032904D10521417000F092F90446204632BDDFF810161D
:201A200088607047DFF8081648607047DFF80026126832B19288824203D1012908BF00F0C6
:201A40008DBA70471720AEE270B586B0044600208DF80000A0680578691E0A2939D8DFE860
:201A600001F006060D1115191D2125292D0001A903F027FF122824D106202BE001A903F0A4
:201A800093FF1EE001A903F0ABFF1AE001A903F0BEFF16E001A903F0D2FF12E001A903F028
:201AA000EBFF0EE001A904F011F80AE001A904F018F806E001A904F02BF802E001A904F0E8
:201AC00040F8D8B9608805F0F7FB072628B9082612E007208DF8000013E0027BDFF85015E8
:201AE000082A0CBF8968496831B10B68190003D001AA2946984706468DF800609DF8000047
:201B000020B1608800A900F005F801E000F0EAFE06B070BD38B50C46DFF8183522460221EC
:201B200004F01DF80546207800F03DFA284632BD70B5DFF8FC440546206800280E463DD09D
:201B40008188A9423AD1417806292FD1017809B381684969026ACB0704D5137BDB0748BF40
:201B6000072113D4C1F34003002B1FBFD368C3F34003002B092109D1C1F3800100291EBFB8
:201B8000D168C1F38001002902D00B21417007E0A06800E0606818B14068010018BF804758
:201BA00020684078122816D1002004E0112905D106B13226304600F0F6F90CE03EB92846FB
:201BC00005F07AFB18B1017941F01001017129463046FFF77DFD012070BD10B5DFF85044D1
:201BE000206888B1007800280CBF6068A06818B14068010018BF804720684078122803D18B
:201C0000BDE810400020CEE110BD2DE9F34FDFF8206430688DB0904608B912203DE08088BD
:201C200005F04AFB050008BF142036D009A800F0E2F93068017871B1D0F8209004F0E9FA66
:201C40000446002004F0E8FA95F805A009AE074605F1060B0BE0066A04F0DBFA82460020FB
:201C600004F0DAFA6C790DF124098346AF1D07A9484603F0CFFD05A9304603F0C7FDCDF85A
:201C80001080CDF80CB0CDF808A0019700940E990D9805AB07AA00F082FE0FB0BDE8F08F9A
:201CA00070B5DFF88C530446686886B000281CBF006800280E461BD030788DF8040070780E
:201CC0008DF8050002A8B17800F013FFF0786B688DF80C0001AA7068049001211B682046B7
:201CE000984728B18DF8000000A96088FFF712FF06B070BD38B5CE4CA46834B1A5682C00FB
:201D000003D0049C0094A84732BD022032BD1FB500F031F870B100A800F06DF92168888828
:201D20000978002914BFC44BC44B00AA072103F016FF00E0012004B010BD1FB500F01BF8D5
:201D400000F12501102200A809F048FD2068BC4B0AE01FB500F00FF800F13501102200A80F
:201D600009F03CFD2068B74B808800AA112103F0F6FE04B010BDAE4C20687047F8B5AC4F7A
:201D800004463868006A0025002840F0AD80102009F090F939680028086200F0A3808E6857
:201DA0001022214609F01AFD38680178002973D1026A12F80CCF06F114010CF0010C0B681B
:201DC00003F00107674518BF00275B0847EA43030B605F08D2F800C04FEA5C0C00F087F818
:201DE00018BF002723F0020343EA47030B609F08D2F800C04FEA9C0C00F079F818BF00277A
:201E000023F0040343EA87030B60DF08D2F800C04FEADC0C00F06BF818BF002723F0080385
:201E200043EAC7030B601F0AD2F800C04FEA1C2C00F05DF818BF002723F4807343EA072368
:201E40000B605F0AD2F800C04FEA5C2C00F04FF818BF002723F4007343EA47230B609F0AF9
:201E6000D2F800C04FEA9C2C00F041F818BF002723F4806343EA87230B60DF0A1268D20A35
:201E800007F0010702F00102974218BF002723F4006242EAC7220A60617800291EBF7178B7
:201EA0000029052119D16168C1F3800121B9B17C490758BF012110D50178002919BF317853
:201EC0002278327821780529B8BF052A08DA0FF28C1302EB8202D218895C2030017104E0E9
:201EE000182502E0132500E011252846F2BD07F001070CF0010C674570470A46524B15E00B
:201F000010B586B00446ADF800101046014608220DF1020009F062FC4C4B00AA0B212046D6
:201F200003F01DFE06B010BD0A46494B112103F016BE1CB58DF800100446104601460622BE
:201F40000DF1010009F04AFC424B00AA0821204603F005FE13BD0A463F4BE7E710B5FFF754
:201F60000AFFE0B1006A08B109F054FA2068806E08B109F04FFA2068C06E08B109F04AFA40
:201F80002068006F08B109F045FA2068406F08B109F040FA206809F03DFA00202060BDE839
:201FA000104000F0ADBC224900B5096885B081B14A6F03920A6F0292CA6E01928A6E0092D0
:201FC0000B7F8A880978FFF709FC05B05DF804EBC4E705B000BD16490968102000291CBFCF
:201FE0000A6A002A06D0896821B1087E117A814238BF0846704738B504460D4800680028BE
:202000001CBF8568002D0CD02878207068786070201DA97C00F06DFD287E20726869E0600A
:2020200031BD2046BDE838401022002109F0B0BC50480020F75901000D580100155801009A
:2020400097590100BF5901002D5A0100555A01009D5A0100AF5A0100FF5A010001010201DD
:20206000020101020102030304010301010101010303020103000000DFF8BC068178FF297E
:2020800000D170472DE9F84F40684FF4907202FB010400F02FFA02FB0100009004F20B10B4
:2020A0000178012908BF417800F08D8004F1740504F58C76287B022804BF00202873F188D3
:2020C00011B1307907F052F860892081DFF86C06817A90F807C0077BC37A427B01EB0C0EB5
:2020E000BE449E4402EB0E0804F5877E1FFA88F8BEF8049009F10109AEF80490BEF8009094
:20210000C144AEF80090BEF802908944AEF80290D6F80090DFF82866B9F1000F0DD096F850
:202120000EA039F81AB0D84429F81A8009EB4A08B8F84A908944A8F84A90BCF1000F08BF85
:20214000002B03D1002F08BF002A22D02189E2895118A18100212174217F012904BF618C9E
:20216000E183417859B101212177A978002904BF297B002903D1A97E09B9618CE1830099FD
:2021800024310A7C42B3022A04BFC27A002A1FD121E0E28339B100212174217F012907D182
:2021A000618CE18304E0BEF80610491CAEF806102189A2898A42D4D1207C08B1052901D063
:2021C000082100E03E212046BDE8F44F09F01EBD427A0AB102220A74C77B2268DFF8643520
:2021E000FF0704D50169D1600021596105E05B690B60B168D1600021E183DFF84C154969BD
:20220000097889074CBF807B81202870204600F076F901280BD001212046FEF786FB00F0B7
:2022200008F801281CBFBDE8F14F09F023BDBDE8F18F2DE9F843DFF80005416880784FF4A6
:20224000907202FB001400F055F904F1680502FB01082868006804F18E0708B100200CE07E
:20226000A87B002804BF287E002807D13878002804BF207F012801D1608CE0832089E18B11
:202280000818401C6081204609F0BCFC01281EBFDFF8B8040078012801D100F025F9287E0A
:2022A00001280CD16A8B6189208909F0A7FC30B121896289481C82421AD06A8B0FE03878D8
:2022C000012815D17A886189208909F097FC00281FBF2189481C6289824209D07A8882426C
:2022E00006D0501E608180B209F0B8FC401EE08308F1240898F8100008B100F0F5F804F1C9
:202300002E07287E012801BF688B2189491C884237D1608104F18401204609F06BFC688C10
:20232000E189608400202077E08360890818A0812189688B09F092FCB988EA8BB5F820C0A4
:2023400001FB0026A88C8C4504BF3989884202BF698CFA88914206D003096A8CA0794FEAD2
:202360005C0104F048F9287F3870288CB880688CF880A88C3881204609F038FC02202876E4
:2023800000E0BE88E08B2268D2F80CC0401C00FB06F3DFF8BC6340F6C41000FB03F18C447D
:2023A000C2F80CC03668DFF8ACC33678BCF800E0DFF88823B609032E12D1D67BF60748BFC7
:2023C0004FF0000E0CD40EF101061FFA86FEBEF1010F12BF668AB8F80E6006F2DC5600E085
:2023E000668A5E434FF4C879B6FBF9F6761C6661ACF800E0A361E38BD4F800C084F8203081
:20240000CF4B9E68DCF80CE0CCF810606669AEEB06069E60CCF80860DFF828C31E7B06F0B9
:20242000F00646F002061E7300265E80DCF814E066690EEB4606CCF814602D7E022D04D110
:202440003D7800FB0565CCF81450D57BED071DD59D68A5F5A8659D60691A2668B5603161A3
:20246000DCF8141001F5F661CCF81410C8F80010B988B94D00FB0150CCF81C00B748007875
:2024800001281EBFB048806A40780FE0BD88DCF814104543A1F5E661A5F51675A942E7D341
:2024A0000821204609F0B2FB01201BE08CF80B00AB49206843600020107050709070D0707D
:2024C000107150719071D071107250729072D07210735073D0731061072008702046FEF7FC
:2024E00018FD0020BDE8F2830020E0832089401C608170479B48A1790068382270472DE9E1
:20250000F04782460AF106069648317800688B4C382282B002FB01080AF1E3090AF1E8078C
:202520000AF1660507E0504609F05CFB012835D15046FEF7A1FA687D80B3687C02281BD002
:2025400004282ED0052842D0062871D00728EAD0092800F0BF800B2800F08F800C2800F004
:20256000C6800D2800F09E80FC2817D0FD2800F0DD80FE28DFD111E0287C012808D1E07890
:2025800000285AD01621504609F040FB012006E05046FEF7F4FC2874E88A28830020BDE8E8
:2025A000F687287C01280ED1A078002845D0FC215046FEF77FFA30780AF1B4020AF1AC017B
:2025C00009F00CFBB7E7504609F004FBE3E7287C01280FD1A07828B101208AF89200002012
:2025E00038607860B87A01286BD106215046FEF761FAA0E799F80000012809D1504609F01D
:20260000E5FA0128CAD10020B87201202874C5E799F801000028C1D00AF1C3020AF19C01C1
:202620000AF1D30009F0CEFA012089F8000082E7287C01281DD1A078002842D0B08B308305
:202640005046FEF719FA00F09BF80120A871397A3078012903D1002109F0B0FA03E00122FC
:20266000002109F0A7FA002038723873F872B87261E7504609F09AFA8DE7287C012805D114
:20268000F87A012808BFFC21B0D01AE0504609F089FA0128BBD10020F8728AF892000120BB
:2026A000287448E7287C012810D1A07830B100208AF8920000F064F80120A871E07800286E
:2026C00010D100F057F8A2D122215CE7504609F0A5FA60E7287C012805D1A0780028F0D0C9
:2026E000B08B308324E75046FEF7ECF853E7287C012815D1787E012808D1B87E012804D159
:2027000000F032F8002009F049FA11E700F032F87FF444AF00F028F8222009F03FFAD3E78D
:202720000120F876504609F035FA34E798F820105046FEF7BFF9B2E7B04C0020704E00209B
:20274000E04D0020384D0020F0C40100894C002040480020B6480020F0DDFFFF864C00205A
:20276000B84C002038480020388C0090FB8B3A7F31787047288B401E288380B200287047D5
:2027800001202870504609F001BA704738B5614D0446286808B1102032BD09F0F3F958B93C
:2027A000122008F087FC286020B1002101704470002032BD132032BD012032BD38B504009B
:2027C0000D4618BF002D01D1022032BD032100A800F06CF900A82A4600F027F8040004D19E
:2027E000032200A9E81C08F0F9FF204632BD30B504000D4618BF002D83B001D102203EBD60
:202800000322E91C00A808F0E9FF00A801AA00F00CF848B90322294601A808F09BFE0128C7
:2028200001D100203EBD01203EBD817801F03F0141F040018170204600A980E030B50C465C
:20284000002818BF002C8DB0154600D00DB9022011E00146102200F06FF81022214604A8F7
:2028600008F054FF00F099F80446102208A9284608F04CFF20460DB030BD70B5254C0546BD
:20288000206870B3A5B9027862B90822801C08F0A5FF09F077F918B92168012008701FE0DD
:2028A000012503E008220A3008F098FF2068B8B1122008F049FD06000DD0C1203070757072
:2028C00010222068811CB01C08F088FF20684078314607F09FFB206808F09CFD0020206055
:2028E000012070BD80B5202003F02EFB38B1024609480078BDE80840012108F0DDB901BDA4
:2029000005480078012108F0F1B90248006800B101207047A8480020BB48002070B58CB05F
:2029200000F020F800F006F8280A8DF81E008DF81F50ABE01022214600A808F0E7BE70B54A
:202940008CB000F00FF8FFF7F5FF032229460DF11D0008F0DBFE00F020F8044603220DF165
:202960002D0198E004460D4616463022002100A809F00EB870B58CB0FFF7F4FFFFF7DAFFC5
:2029800000F08FF800F009F89DF82F109DF82E2001EB022131800CB070BD00A8C2E0F0B580
:2029A00095B005460C4616461F463022002108A808F0EEFF1022294608A808F0A7FE10224C
:2029C000002100A808F0E4FF07223146FFF7B4FF072239460DF1070008F098FE1C9901B168
:2029E00001218DF80E101A9901B101218DF80F101022002104A808F0CBFF1B99062205A89D
:202A000008F084FE1D9906220DF11A0008F07EFE102221460CA808F079FE00A90CA800F0C9
:202A20001AF808A800F07EF80446102210A90CA808F0D4FE04A90CA800F00DF808A800F0C5
:202A400071F805461E98102210A908F05FFE45EA040015B0F0BD10B51022037811F8014B60
:202A60006340521E00F8013BF7D110BD70B50C468CB0154601461E461022FFF75DFF082213
:202A8000214604A808F042FE00F00BF8FFF785FF0446102208A9304608F038FE20460CB08B
:202AA00070BD0822294606A808F030BE70B504460D46002609E008F00AFF010A3155761CC7
:202AC000F6B2AE423CBF3055761CF6B2AE42F2D370BD006800F00301C0F3800241EA820183
:202AE000C0F3C00241EAC201000941EA0010C0B27047026861F3010202604A0703684CBF1C
:202B00000422002223F004031A4302600B074CBF0823002322F0F8021A43090942EA011170
:202B20000160704700F1200200F1100109F026B82DE9F0470700144614BF002C022088B08A
:202B400089463FD009F10405A8B208F0B3FA060036D003F04DFB80464A463946301D08F034
:202B6000D5FD86F803804FEA1827B7704FEA184986F801904FEA186A86F800A003F035FB3E
:202B80000146102203A808F0C1FD0820009001ABAAB2314603A800F085F805000DD184F8AD
:202BA0000080677084F8029084F803A0082201A9201D08F0ABFD03F01FFB00F070F800E09B
:202BC0001325284608B0BDE8F0872DE9F04F89B015001CBF129F002F80460E469A4615D03E
:202BE00004F06AFB040008BF142055D03878797800EB0120B97800EB0140F97800EB016988
:202C0000606A484504D310F1010F01D0022043E026B12079800758BF01203DD508220021D3
:202C200001A808F0B5FE0AF1040B1FFA8BF008F041FA060008BF13202ED052462946301D1D
:202C400008F064FD04223946304608F05FFD102204F1140105A808F059FD0820009001AB11
:202C60001FFA8BF2314605A800F01CF8050010D1082201A903A808F049FD0822391D03A8C8
:202C800008F068FC012811BF012549464046FEF756FB00F004F8284609B0BDE8F08F3046B1
:202CA00008F0B8BB2DE9FA4F834685B0154600F0CFF8814600F0CCF8B9F1000F804608BF79
:202CC000132400F0B680B8F1000F08BF132400F0AD8000F0BDF800F0BAF8BAF1000F064677
:202CE00008BF132436D00EB9132430E01022002108F04EFE524631465846FFF717FF04006E
:202D000025D19AF800000FF27C17000604D44946504600F0AAF808E03146504600F0A5F880
:202D20004A463946304600F096F899F80000000604D44146484600F098F808E0314648469F
:202D400000F093F842463946304600F084F8504608F060FB0EB1FFF7A2FF002C66D100F07D
:202D600077F800F074F8BAF1000F064608BF132459D00EB9132453E005F10F00C11000EB69
:202D8000117007033F1405F00F0102D10127002202E04A1E9241D20F781E059B000503EB0C
:202DA000104012B222B13246494600F054F810E000AB8A42B8BF155C02DB0CBF8025002528
:202DC000D554521C102AF4DB3246414600A800F042F810220021504608F0DAFD00250BE0BA
:202DE0000598290189B2091800AA504600F033F800F029F804466D1C2DB2781E854201DA5A
:202E0000002CEDD064B900AA3146504600F023F800F019F80446109A0698514608F0DEFCEE
:202E2000504608F0F7FA0EB1FFF739FF484608F0F1FAB8F1000F1CBF404608F0EBFA204659
:202E400007B0BDE8F08F524600A958466EE68246102008F02FB930B500231C5C5D5C6C40A7
:202E60009C545B1C102BF8DB30BD10B500220F231C5C42EA44025A541A5CD2095B1EF7D5A9
:202E800010BD00000000000000000000000000000000008710B586B01C460823ADF8003081
:202EA00001901B23ADF80230039104922068DFF830160968029000A888470299216006B051
:202EC00010BD00B583B000F019F88DF80400172105E000B583B000F011F801901E21ADF840
:202EE000021000A8DFF8F815096888470EBD00B583B000F003F801901F21F0E70821ADF8E0
:202F00000010704700B583B000F0FAF9212000F00AF89DF804000EBD80B500F0F1F9262033
:202F200000F001F802BDDFF8B8150968ADF8020000A80847DFF8AC0507F00EBBDFF8A8056A
:202F400040F6020101804FF40162002141804160816001730121417300218173DFF88C15D6
:202F60000A8048600022DFF87C054A808A608A8108614A61704710B5DFF8740586B00021AF
:202F8000C160C16001600160DFF85C45207E032805D11020FFF7ABFF0020FFF792FFFFF7A9
:202FA000B1FF0028FBD0FFF7B7FF00F060F940F60A0000F06AF9206B0490002000F05DF961
:202FC000607E012803D10020607600F05DFA08F09DFE2062207E012805D11020FFF787FF7B
:202FE0000020FFF76EFF0020207606B00120A07610BD2DE9F843DFF8FC44DFF8FC542068C7
:203000008047074600F080F9032803D029683846884732E02968DFF8D064307E012802D1FF
:203020003846884758E001203076384688470020DFF8C874DFF8C814DFF8C884DFF8C894BB
:2030400070637861F86040F2FF70086008F092FD002038613861F861F861EFF311808006DF
:203060000DD502203076DFF87C0407F075FAFDF7A2FE00F034F8FFF77EFF00202DE0002079
:203080007080DFF88824DFF8880400883082DFF88404C06A81681278096802EB4202511819
:2030A000B1F801107182406870611020FFF711FF0120FFF706FF00F012F8386860B920685D
:2030C0008047716B41B9DFF850147163DFF81C1439602968884778680120BDE8F283002207
:2030E0004946404606F026BE38B5EFF311808006DFF8F4431BD5A07E03282AD1207E0128F2
:2031000010D103202076606B010022D0DFF8E0130A689207FAD56FF003020A6080470020FE
:20312000606316E002202076FFF763FF11E0DFF8C403006880470546A07E032804D1207E01
:20314000012818BFFFF755FFDFF8AC13096828468847A07E0128FCD1BDE8314081E138B568
:20316000DFF89003DFF8B453006880470446287820B10020FFF7A5FE002028702046BDE8A1
:203180003440DFF8741309680847DFF87403016821F0020141F4007101600321DFF880034D
:2031A000816041F2300141610121C160502141610121C1604FF4CA6141610121C1600160DB
:2031C0007047F0B500F087F9CB4E85B08047044600206863A87E032844D008F097FD296A55
:2031E00008F020FDE9694018696AE861814208D3CC480088B0F5006F1CBF40F2024188428C
:2032000024D12F6B07F038FA0020E86100F02FF840F6090000F039F800F02FF80498696A90
:20322000286387422CBF381AC01B0328A7BFBE48401801F59C4020300028BC4948BF0020BD
:20324000884268620ADBBA48686207E0B9480021C16041608160816001600160FFF795FF50
:203260000320A87620463168884705B0F0BDB248016841F00201016070478DF80C0001207C
:203280008DF80D0000A806F0E1BAADF800000020ADF802000190029070473EB507F0ECF94E
:2032A000A649012008604FF44220FFF712FE00F0D8F8FFF743FEFFF725FE0028FBD0A04DFB
:2032C000894CFFF729FE2D680FF26111642004F12C030022B0FBF5F0FFF7DCFD00F010F8D3
:2032E0001820ADF802007E490FF265100968019004F13800029000A888470320A07637BD4D
:203300000820ADF80000704710B57A480068804775498C7E784909688847204610BDFEB5C4
:203320000446714D60680021A962017B01F00F0102294CD18068A06040F61D478148007809
:203340000938052832D308F0D5FC06001CBFB068002835D008F0DAFC0146B06808F062FC88
:20336000A0F5C871784A914220D28608BE421FD3FFF7C6FF2720ADF802004FF47A70B6FBF1
:20338000F0F000F04DF802980FF2A101301A6F4EF668C838801B6A4E366805F12C0300223E
:2033A000B0FBF6F0FFF776FDAC6209E0642600E036B1606807F0D0F800F053F8BE4214D322
:2033C000FFF7A2FF032810D0FFF7C9FEF7BDFFF79BFF032808BFFFF787FE08F097FCA06052
:2033E000606807F0B9F800F03CF8F7BD30B505464048006883B0804704463B48816AA942C8
:2034000007D1FFF77BFD1C21ADF80210C06A00F007F800F001F837BD3749096820460847D6
:203420002F490968019000A80847704700B583B0FFF766FF2220FFF776FD00280CBF0198EA
:203440000020032814BF012800F028F807BD0000052808BFFFF7CDBD022808BFFFF7B1BE87
:20346000704738B52348244D0068804704462B48017821B9012101700120FFF722FD296833
:203480002046BDE83440084780B508F033FC20B1BDE80240406807F05FB801BD38B508F0F1
:2034A00029FCB8B100F017F88047044601206876FFF72AFF032808D000200F496876204691
:2034C00009688847FFF7E0FF01E0FFF7A5FFBDE83140C6E731BD0748034D006870470000ED
:2034E0004448002001010E04F04500200C48002010100440484800204C4800200010044027
:20350000000004600200008000048000B94C0020944C0020F0C40100772F0100BA4800209E
:20352000004104400A4F0020E0B1FFFF01350C0000350C000810044000200940D02108407D
:2035400044460020B84C0020711EA107F046002080B54FF48030FFF7BCFCBDE8014008F05C
:20356000B5BB4FF48030C2E470B5DFF86C66054630680C4608B1112070BD00F0CDF813D090
:20358000DFF85816896800291CBF0978002901D1102070BDC00702D403F0BDFF30B1207853
:2035A000032818BF022801D0122070BD0C2007F081FD306020B305700021306841700A22A0
:2035C0002146801C08F00AF900F030F9040002D000F0E6FA15E0DFF808060078032810D1D0
:2035E0001D2002F0B1FCDFF8FC15088048B1DFF8F80500784EF66022042107F019FA00E065
:203600001324204670BDF8B50C46DFF8E01509781546052211421E462AD001F00501214306
:2036200026D0012CDFF8B41502D18F6807B301E0CF68EFB1202D01DA15B10EB90220F2BD05
:2036400008701F220021781C08F0A2F92A463146781C08F0C3F83D70284624B1791CBDE811
:20366000F44008F083BA791CBDE8F44008F07ABA1220F2BD38B5DFF86045216809B9122080
:2036800032BD0978814201D0032032BDDFF858552878022107F02AFBDFF8541500200880C9
:2036A0000421287807F022FBDFF83815002008800320216848700020BDE8324008F04EBACA
:2036C00010B5044600F028F882B001D1122016BD1CB1207806F050F908B9022016BD607890
:2036E000801C202812DA207800F0BAF908B1182016BD00A90DF1010000F0BFF99DF8000016
:2037000030B161780818801C202801DB0B2016BD204600F072F916BDDFF8D0040078052134
:203720000842704780B5DFF8C41409780522114201D1002002BD00F093F900B1406802BD64
:20374000DFF8A81409780522114218BF00F06FB900207047DFF8940400780521084218BFE7
:2037600000F0A6B91220704770B5DFF87044A06818B107F04FFE0020A060E06818B107F024
:2037800049FE0020E0600521DFF86054287808421CD004F1100003F07DFF2878002605219B
:2037A000084211D000F0DDF9A06060B100F013F800F0D7F9E06010B100F00DF804E0A0686A
:2037C00007F028FEA6601326304670BD002003F061FF002070BD2022002108F0D9B810B579
:2037E0008188012442F20603CA1A05D0921E012A0DD9921E05D016E08068007800F054F8CD
:2038000003E08068007800F060F804460CE0806842F20802914201780CBF0122002210460F
:2038200000F09EF800E00024204610BD2DE9FF41DFF8A443206898B3857803F06CFE28B1B1
:203840000A2002F081FB06460B200DE000F0B1F928B1062002F078FB0646072004E00820EF
:2038600002F072FB0646092002F06EFB8046DFF87003077807B101272068011DC07802F0DA
:203880005DFC2168CA7A03923B468A7A0292091D019100902A464146304608F05BF900E073
:2038A000012004B0BDE8F08180B5DFF82C13096849B118B90120487008F050F908B100F0D3
:2038C00053F9012002BD002002BD2DE9F041C24D80462868002841D04078C64E01282DD105
:2038E00000F067F9C04FA0B1012002F02DFB0446422C0AD338784EF66022022107F098F828
:20390000BB49A4F13C0008800CE04FF47A70444302E002F019FB044624B138782246022168
:2039200007F0CAF9296802204870307818B9404600F01AF911E0002030700EE0307860B900
:20394000032007F001FD30B1D021017080F80180042100F01FF900F023F90120BDE8F081A3
:2039600070B59E4E04463078FF280D460FD0042007F0EAFC58B1D0210170457002218170B6
:20398000C47001463078BDE8704006F043BB70BD38B501469048944D02682878944C01298D
:2039A0001DD1218811B1934B1B7823B122B3BDE8324010785EE63C29A8BFA1F13C000CDA31
:2039C000022107F093F920884FF47A7101FB00F22878022107F070F90020208031BD5AB1A1
:2039E00082490978490707D5022107F07FF900202080BDE83140D3E031BD38B504460820E7
:203A000007F058FB050010D00822FFF7E5FE7348416831B100E0014608680028FBD10D6036
:203A200000E045606C60002032BD132032BD10B56A4B5968002201E00A46096871B14C682F
:203A400024788442F8D14C680868002A14BF10605860084607F0DEFC204610BD002010BDB3
:203A60005E49496800E0096829B14A6812788242F9D1084670470020704770B50022027064
:203A80000A70564B5B6803E0AD1C2C1904701B686BB15C6865782AB904782E19B61C202EDD
:203AA000F2DB01220C78AD1C2C190C70EFE770BDF8B54E48007800240521084201D11220B2
:203AC000F2BD464DA86810B900F04BF8A860E86810B900F046F8E860A86800281CBFE9689D
:203AE000002901D11320F2BDFFF775FEE8682022214607F04DFF6E6812E09B1C88185918B4
:203B0000401C117071684978491C0170716809784170801C71684A78496807F05FFE366873
:203B20009EB144B9AA687068117843785F18BF1C202FE2DB01247368E9685B780A789B1C50
:203B400050189A18401C0A70DCE7AA681078511C08F00CF8E868411C007808F003F8002077
:203B6000F2BD202007F0A6BA38B51B4D0446286878B1032007F0E8FB28B1D02101704470BB
:203B8000032100F007F8002C1CBFBDE8314000F007B831BD817001462868007806F03ABA2E
:203BA00010B50D4C206818B107F034FC0020206010BD80B50948806858B10278431C00A909
:203BC000012005F0E3FE20B10078C00701D5012002BD002002BD000090480020C446002027
:203BE000764600207846002000470020754600208A480020774600200A7802704A78427092
:203C00008A78C97802EB0121418070472DE9FC410D4616461F460A9A0999044601AB00F047
:203C20004FFA5FEA000822D10199089808703346DFF80C060178491CC9B2002906BF01217A
:203C400001220A460170294601980271009701980279204600F00EF85FEA000804D101983F
:203C60001E2100F073FA02E0019800F052FA4046BDE8F6812DE9F041044684B00E461746D9
:203C80009846172000F0EAFA050025D00A9A100003D04146281D904700E00020010A2E706E
:203CA000E9706F70A8700521001DADF80800ADF80010019500A9DFF88C0500780028204662
:203CC00002D000F058F801E000F00BF8040004D0284606F081FB00E01324204604B0BDE870
:203CE000F08110B50B88DFF860250C2404FB0322303A536833B94B685360098950811181DF
:203D0000002010BD162010BD80B5052000F00FF858B9062000F00BF838B9042000F007F834
:203D200018B9072000F003F800B1012002BDDFF818150C2202FB001110B5A1F1300484B010
:203D40006168A9B1DFF8FC2412787AB1ADF80000019100A92089ADF80800608900F00BF882
:203D600010B1606806F038FB00206060012000E0002004B010BD70B50D460446288920B1CB
:203D8000DFF8C8140988814201D21B2070BD6868042107F007FA0646288930702889000A9C
:203DA00070702888B0702888000AF0702889051D4FF6FE70844213D10C2007F0C5FA010026
:203DC0000CD0902008704C8002200871CD808E60DFF87C04007806F01DF917E0132070BD0B
:203DE0003346AAB20021204607F0B0FE010007D002280DD007280FD012280BD01F280CD19C
:203E0000DFF84004017809B1491E0170002070BD142070BD022070BD042070BD38B50446F7
:203E2000002060600879022821D1CA88042A1EDB886801784378C57801EB0321837889B2E5
:203E400003EB05230D1D95429BB210D1052B18BF042B03D0062B18BF072B08D121812380BC
:203E60006FF0030107F09EF96060002032BD012032BD0B88037002220B881B0A43700B884A
:203E8000012B06D14A88827004224988090AC1700CE0022B0AD14A8882704A88120AC27048
:203EA0008A88027106228988090A417110467047022A1BDB0A784B7802EB032202800288ED
:203EC000012A05D18A78C97802EB012141800BE0022A09D18A78CB7802EB032242800A7941
:203EE000497902EB0121818000207047012070470A8802700A88120A42704A8882704A8847
:203F0000120AC2708A8802718A88120A4271CA888271C988090AC17108207047082A18D118
:203F20000A784B7802EB0322028011F8022F4B7802EB0322428011F8022F4B7802EB0322C8
:203F4000828011F8022F497802EB0121C180002070470120704705E0022A00D10EE0012074
:203F6000704700BF0A8802700988090A417002207047022A00D101E0012070470A784978A0
:203F800002EB012101800020704780B54B8800F8013B04224B881B0A00F8013B0B8800F8A1
:203FA000013B0B881B0A00F8013B0B8873B94B88022B04D1496807F005FC082206E0032B5E
:203FC00004D10822091D07F009FC0C22104602BD10B50446042A084627DB0178437801EBD0
:203FE0000321618010F8021F437801EB03212180801C218899B96188022906D1082A14D18E
:20400000042106F04DFF60600DE0032908BF0C2A0BD101460822201D07F0E0FB03E00129FA
:2040200008BF042A01D1002010BD012010BDF8B504460D461646102007F086F9070016D0A5
:20404000A02038707D80002078702EB10C223146381D07F0C3FB04E00C220021381D07F0E6
:2040600097FC3946204605F0D5FF0020F2BD0120F2BD2DE9F04180460D4616461F462020FF
:2040800007F062F9040019D0A220207066706580069820716771079929B1182204F108001C
:2040A00007F09CFB04E0182204F1080007F070FC21464046BDE8F04105F0ACBFBDE8F081BB
:2040C00070B51E0004460D4621D0012103F022F9D8B160480078002100E0491CC9B2814292
:2040E00011DA5D4B1B6803EB01125388002BF4D10020107001F14000508022B1D48015728E
:204100003260002070BD152070BD142070BD012070BD10B504461022002107F039FC24E01D
:20412000002201E0521CD2B24A4909788A420BDA4949096801EB02114B88002BF2D00B797F
:204140008342EFD108467047002070474FF47A724A4300F1090301460FF2150007F000BC35
:2041600010B50446607A05F0E1FFFF20607210BD10B504001CBF6088002807D0172120469A
:2041800000F005F82046BDE81040C2E710BD1CB50446207804280FD10020019000900A4611
:2041A000E188207A1323FFF764FFE18802B0BDE81040122205202DE013BD072170B5044690
:2041C000002531BB17E02448006800EB0516307800281CBF707AFF280CD0F088A04209D131
:2041E0003046FFF7BDFF14213046FFF7D0FF3046FFF78FFF6D1C17480078EDB28542E2D3B2
:204200000425FF222146284600F004F86D1C082DF7DB70BD10B50C4B0C2404FB0030A0F1CA
:204220003004608988420AD1606840B1FF2A1CBF0178914203D106F0CFF80020606010BD75
:20424000B94800207E480020BC470020404700207C4800207D4800208048002080B5001D8A
:2042600080B207F0E7FC28B1BDE804406FF0030106F098BF02BD7047002070472DE9F0412C
:204280000FF224102249272250F8043B50F8044B50F8045B50F8046B50F8047B50F804CBDB
:2042A00050F804EB50F8048B41F8043B41F8044B41F8045B41F8046B41F8047B41F804CBF0
:2042C00041F804EB521E41F8048BDDD142688368006808604A608B60BDE8F08110B50D4CA2
:2042E0000D4800F025F810D168220FF254010B4805F0CEF90A480B4901600B490162FFF7D8
:20430000BDFF0A4800F014F800D0002010BD000000C000210010044041000706040400212A
:20432000B0030021050400214504002101000706206060680028FCD0606801287047000023
:20434000F0B5174C40216118C878022805D009480021016008498847F0BD256E074E35601F
:20436000600728432066276824600E48804727603560F0BD2C110440A565000028400440B5
:2043800010B5074CA17D002905D10121A175480204493E3988472068002800D0804710BDBF
:2043A000540200218B390000546100007F140200060005000F0008004800520080FF3F00FE
:2043C00000000000000000000000000000000000304000400140034007400F404F40CF4075
:2043E000CF41CF43CF47CF4FCF3FCF2FCF1FCF0F000000000000000000000F000800000078
:204400003F00000040003F000000040068000E00DC00060043001A0005000000000002001E
:2044200000000000000000000400C00000000400C0000000070000000000000000000000ED
:20444000000000000000000050C00091007070C00091007082312100319110B100700181D1
:2044600001B100A18231329110B101911110418141226340F106007051C00191301810399C
:20448000833108D01831416F3100319110B1831414166F680070251050C00091F4C340C14D
:2044A0002014036F311041045082F0228440512622C082312100319110B163393110410456
:2044C00082C082312100319110B163393110A2C082312100319110B1501015310514059257
:2044E0000070536452C0311031066131C102566412C13110213971065131E1025664007088
:2045000051C0019101CCE2C05664536411C1C2C0566454B0007154A064B0F0800022B54006
:2045200011C122C1566451C00191E2C0823160820200329110B100C3C86853644012B09070
:2045400032B000C3CE6840C2D0688012B09032B00070536401C122C1566401C1C2C056640E
:2045600053829D64C012B09032B00070536472C281C0566422C111C1566402C011C156645E
:2045800062C031C3566462C311C1566402C311C15664538253399D64E2C35B641122F84018
:2045A00042C281C8566452C211C1566472C2E1CE566402C281C8566402C201C85664B0C039
:2045C0000C690070536442C201C8566452C211C0566472C2E1C0566402C001C1566462C02A
:2045E00001C3566422C101C1566462C301C1566402C301C1566453829D64007002C1623160
:2046000001C0A080001E3241101A34612010101A136F236E1116121634690070E092D082DC
:2046200000223B45C0B20070000000000000000000000000000000000000000000000000F6
:2046400000000000000000000000000000000000067305720B720E7250B00071818060B0EB
:2046600050A09280F0EFF19202933A65412278458080F1C11004301601110114016C8B61F6
:204680008C618D618E618F61906191619361956197619961706273629180F2C021042131C0
:2046A0008280422A1214321601112114016CA661C761AC617362A661C761AC6173629B614C
:2046C0009B619B619B619B619B61AC649B61D5649B61E2649B610E659B612A659B6182806F
:2046E000E0DFF2923A65B0B0A261B1B00673057230B05861D0CF3A6584C203C0C0C36864F5
:20470000907850916078103161781014009250784031617810004031717810001092B078B2
:204720006092817821923078403141781000309210C0F0919B6154A0F0805022CF45408040
:2047400000226646C76100C86091598150B0918041222E46C0CF3A6512828231823942393D
:20476000281077641282F11212042F101F312F1440C120140D6F6D39DE10F4C34E0482C017
:2047800082312E006D39A2C082312D001A828A392082803180390BC00B18AC7830824039A8
:2047A000021011C0013010C00118021882312100C126919103B013B063B053B003823914A7
:2047C000418001226646B481C491D5819518B51C1C4EC51C544A6591F08010220C422C628E
:2047E0003D9110B13E9110B165910F925981F914AB18BC10F0805022C74110222C460C6291
:20480000B0CF3A6563B030820010F2C02004021011C0013010C00118021882312100C126FD
:204820009191919113B003B063B053B064B054B0007141800122664663B064B0F080502286
:20484000C741B181C191D1819118619131B044621282823182394239281077645981058267
:20486000591420820BC00B18AC7880C0007163B0626A0C62018262818231823DA0EFF1922F
:2048800002933A6503A09B61A28077649B6150B000719B61F8B505460C46AF892FB3AA6869
:2048A000167830060FD50D2F1FDB0C3FBFB2B81800903B4668880121FEF787F9002814BFFB
:2048C0000220012000E000202070B00900F00100607006F03F00A070781EA08080B208B1A5
:2048E000A868401CA0600020F2BD0120F2BD0A7802704A8842704A88120A8270097912E1E0
:2049000004290AD1017811708378417801EB03215180C0781071002070470420704705E0B0
